{
  "contractName": "Campaign",
  "abi": [
    {
      "constant": true,
      "inputs": [
        {
          "name": "",
          "type": "uint256"
        }
      ],
      "name": "funderStructs",
      "outputs": [
        {
          "name": "funder",
          "type": "address"
        },
        {
          "name": "amount",
          "type": "uint256"
        }
      ],
      "payable": false,
      "stateMutability": "view",
      "type": "function"
    },
    {
      "constant": true,
      "inputs": [],
      "name": "deadline",
      "outputs": [
        {
          "name": "",
          "type": "uint256"
        }
      ],
      "payable": false,
      "stateMutability": "view",
      "type": "function"
    },
    {
      "constant": true,
      "inputs": [],
      "name": "goal",
      "outputs": [
        {
          "name": "",
          "type": "uint256"
        }
      ],
      "payable": false,
      "stateMutability": "view",
      "type": "function"
    },
    {
      "constant": true,
      "inputs": [],
      "name": "fundsRaised",
      "outputs": [
        {
          "name": "",
          "type": "uint256"
        }
      ],
      "payable": false,
      "stateMutability": "view",
      "type": "function"
    },
    {
      "constant": true,
      "inputs": [],
      "name": "owner",
      "outputs": [
        {
          "name": "",
          "type": "address"
        }
      ],
      "payable": false,
      "stateMutability": "view",
      "type": "function"
    },
    {
      "inputs": [
        {
          "name": "campaignDuration",
          "type": "uint256"
        },
        {
          "name": "campaignGoal",
          "type": "uint256"
        }
      ],
      "payable": false,
      "stateMutability": "nonpayable",
      "type": "constructor"
    },
    {
      "anonymous": false,
      "inputs": [
        {
          "indexed": false,
          "name": "sender",
          "type": "address"
        },
        {
          "indexed": false,
          "name": "amount",
          "type": "uint256"
        }
      ],
      "name": "LogContribute",
      "type": "event"
    },
    {
      "anonymous": false,
      "inputs": [
        {
          "indexed": false,
          "name": "funder",
          "type": "address"
        },
        {
          "indexed": false,
          "name": "amount",
          "type": "uint256"
        }
      ],
      "name": "LogRefundSent",
      "type": "event"
    },
    {
      "anonymous": false,
      "inputs": [
        {
          "indexed": false,
          "name": "beneficiary",
          "type": "address"
        },
        {
          "indexed": false,
          "name": "amount",
          "type": "uint256"
        }
      ],
      "name": "LogWithdrawal",
      "type": "event"
    },
    {
      "constant": true,
      "inputs": [],
      "name": "isSuccess",
      "outputs": [
        {
          "name": "isIndeed",
          "type": "bool"
        }
      ],
      "payable": false,
      "stateMutability": "view",
      "type": "function"
    },
    {
      "constant": true,
      "inputs": [],
      "name": "hasFailed",
      "outputs": [
        {
          "name": "hasIndeed",
          "type": "bool"
        }
      ],
      "payable": false,
      "stateMutability": "view",
      "type": "function"
    },
    {
      "constant": false,
      "inputs": [],
      "name": "contribute",
      "outputs": [
        {
          "name": "success",
          "type": "bool"
        }
      ],
      "payable": true,
      "stateMutability": "payable",
      "type": "function"
    },
    {
      "constant": false,
      "inputs": [],
      "name": "withdrawFunds",
      "outputs": [
        {
          "name": "success",
          "type": "bool"
        }
      ],
      "payable": false,
      "stateMutability": "nonpayable",
      "type": "function"
    },
    {
      "constant": false,
      "inputs": [],
      "name": "sendReFunds",
      "outputs": [
        {
          "name": "success",
          "type": "bool"
        }
      ],
      "payable": false,
      "stateMutability": "nonpayable",
      "type": "function"
    }
  ],
  "bytecode": "0x6060604052341561000f57600080fd5b6040516040806109b883398101604052808051906020019091908051906020019091905050336000806101000a81548173ffffffffffffffffffffffffffffffffffffffff021916908373ffffffffffffffffffffffffffffffffffffffff160217905550814301600181905550806002819055505050610923806100956000396000f3006060604052600436106100a4576000357c0100000000000000000000000000000000000000000000000000000000900463ffffffff16806302c06023146100a95780630b6c754b1461011357806324600fc31461014057806329dcb0cf1461016d57806340193883146101965780636681b9fd146101bf578063708b1fed146101e85780638da5cb5b14610215578063d0a4cbdf1461026a578063d7bb99ba14610297575b600080fd5b34156100b457600080fd5b6100ca60048080359060200190919050506102b9565b604051808373ffffffffffffffffffffffffffffffffffffffff1673ffffffffffffffffffffffffffffffffffffffff1681526020018281526020019250505060405180910390f35b341561011e57600080fd5b61012661030c565b604051808215151515815260200191505060405180910390f35b341561014b57600080fd5b61015361031b565b604051808215151515815260200191505060405180910390f35b341561017857600080fd5b61018061049b565b6040518082815260200191505060405180910390f35b34156101a157600080fd5b6101a96104a1565b6040518082815260200191505060405180910390f35b34156101ca57600080fd5b6101d26104a7565b6040518082815260200191505060405180910390f35b34156101f357600080fd5b6101fb6104ad565b604051808215151515815260200191505060405180910390f35b341561022057600080fd5b6102286104c8565b604051808273ffffffffffffffffffffffffffffffffffffffff1673ffffffffffffffffffffffffffffffffffffffff16815260200191505060405180910390f35b341561027557600080fd5b61027d6104ed565b604051808215151515815260200191505060405180910390f35b61029f6106ec565b604051808215151515815260200191505060405180910390f35b6004818154811015156102c857fe5b90600052602060002090600202016000915090508060000160009054906101000a900473ffffffffffffffffffffffffffffffffffffffff16908060010154905082565b60006002546003541015905090565b6000806000809054906101000a900473ffffffffffffffffffffffffffffffffffffffff1673ffffffffffffffffffffffffffffffffffffffff163373ffffffffffffffffffffffffffffffffffffffff1614151561037957600080fd5b61038161030c565b151561038c57600080fd5b3073ffffffffffffffffffffffffffffffffffffffff163190506000809054906101000a900473ffffffffffffffffffffffffffffffffffffffff1673ffffffffffffffffffffffffffffffffffffffff166108fc829081150290604051600060405180830381858888f19350505050151561040757600080fd5b7fb4214c8c54fc7442f36d3682f59aebaf09358a4431835b30efb29d52cf9e1e916000809054906101000a900473ffffffffffffffffffffffffffffffffffffffff1682604051808373ffffffffffffffffffffffffffffffffffffffff1673ffffffffffffffffffffffffffffffffffffffff1681526020018281526020019250505060405180910390a1600191505090565b60015481565b60025481565b60035481565b60006002546003541080156104c3575060015443115b905090565b6000809054906101000a900473ffffffffffffffffffffffffffffffffffffffff1681565b60008060008060009054906101000a900473ffffffffffffffffffffffffffffffffffffffff1673ffffffffffffffffffffffffffffffffffffffff163373ffffffffffffffffffffffffffffffffffffffff1614151561054d57600080fd5b6105556104ad565b151561056057600080fd5b6004805490509150600090505b818110156106e35760048181548110151561058457fe5b906000526020600020906002020160000160009054906101000a900473ffffffffffffffffffffffffffffffffffffffff1673ffffffffffffffffffffffffffffffffffffffff166108fc6004838154811015156105de57fe5b9060005260206000209060020201600101549081150290604051600060405180830381858888f19350505050507fdd896e09a507baf21c108627cf41469f315fb779fe323f5e1c6154fd5d869e6960048281548110151561063b57fe5b906000526020600020906002020160000160009054906101000a900473ffffffffffffffffffffffffffffffffffffffff1660048381548110151561067c57fe5b906000526020600020906002020160010154604051808373ffffffffffffffffffffffffffffffffffffffff1673ffffffffffffffffffffffffffffffffffffffff1681526020018281526020019250505060405180910390a1808060010191505061056d565b60019250505090565b60006106f6610847565b600034141561070457600080fd5b3460036000828254019250508190555033816000019073ffffffffffffffffffffffffffffffffffffffff16908173ffffffffffffffffffffffffffffffffffffffff1681525050348160200181815250506004805480600101828161076a9190610877565b9160005260206000209060020201600083909190915060008201518160000160006101000a81548173ffffffffffffffffffffffffffffffffffffffff021916908373ffffffffffffffffffffffffffffffffffffffff160217905550602082015181600101555050507f0a12a7a0ed6577d8f3ba4fda918630aa274327f25b7745da8cbf04a7429b66663334604051808373ffffffffffffffffffffffffffffffffffffffff1673ffffffffffffffffffffffffffffffffffffffff1681526020018281526020019250505060405180910390a1600191505090565b6040805190810160405280600073ffffffffffffffffffffffffffffffffffffffff168152602001600081525090565b8154818355818115116108a4576002028160020283600052602060002091820191016108a391906108a9565b5b505050565b6108f491905b808211156108f057600080820160006101000a81549073ffffffffffffffffffffffffffffffffffffffff02191690556001820160009055506002016108af565b5090565b905600a165627a7a723058209f125ca367d8fc4509026c6776adf824a418c042f7f37626e596cb56eecbeb0a0029",
  "source": "pragma solidity ^0.4.6;\n\ncontract Campaign {\n    \n    address public owner;\n    uint public deadline;\n    uint public goal;\n    uint public fundsRaised;\n    \n    struct FunderStruct {\n        address funder;\n        uint amount;\n    }\n    \n    FunderStruct[] public funderStructs;\n    \n    event LogContribute(address sender, uint amount);\n    event LogRefundSent(address funder, uint amount);\n    event LogWithdrawal(address beneficiary, uint amount);\n    \n    function Campaign (uint campaignDuration, uint campaignGoal){\n        owner = msg.sender;\n        deadline = block.number + campaignDuration;\n        goal = campaignGoal;\n    }\n    \n    function isSuccess()\n        public\n        constant \n        returns (bool isIndeed)\n        {\n            return (fundsRaised >= goal);\n        }\n    \n    function hasFailed()\n        public\n        constant\n        returns (bool hasIndeed)\n        {\n            return (fundsRaised < goal && block.number > deadline);\n        }\n        \n    function contribute() \n        public \n        payable\n        returns (bool success) {\n        if(msg.value==0) revert();\n        fundsRaised += msg.value;\n        FunderStruct memory newFunder;\n        newFunder.funder = msg.sender;\n        newFunder.amount = msg.value;\n        funderStructs.push(newFunder);\n        LogContribute(msg.sender, msg.value);\n        return true;\n    }\n    \n    function withdrawFunds() \n        public\n        returns (bool success) {\n        if(msg.sender!=owner) revert();\n        if(!isSuccess()) revert();\n        uint amount = this.balance;\n        if(!owner.send(amount)) revert();\n        LogWithdrawal(owner, amount);\n        return true;\n    }\n    \n    function sendReFunds()\n        public\n        returns (bool success) {\n        if(msg.sender != owner) revert();\n        if(!hasFailed()) revert();\n        uint funderCount = funderStructs.length;\n        for(uint i=0; i<funderCount;i++){\n            if(!funderStructs[i].funder.send(funderStructs[i].amount)){\n                //to do : deal with the send failure case\n            }\n            LogRefundSent(funderStructs[i].funder, funderStructs[i].amount);\n        }\n        return true;\n    }\n}",
  "sourcePath": "/Users/ethhome/DAPPS/ngtrufflecampaign/contracts/Campaign.sol",
  "compiler": {
    "name": "solc",
    "version": "0.4.19+commit.c4cbbb05.Emscripten.clang"
  },
  "schemaVersion": "1.0.1",
  "updatedAt": "2018-02-08T16:24:38.534Z"
}